:10000000F62F00308A000408840A82070034003486
:100010000034003400340034083408340834083420
:100020000834003460346034003400343E344134E9
:10003000413441343E34003442347F34403400345F
:1000400042346134513449344634213441344534E6
:100050004B3431341834143412347F341034273490
:1000600045344534453439343C344A3449344934D0
:1000700030340134713409340534033436344934AE
:1000800049344934363406344934493429341E3429
:100090003E3441344134413422347F34093409340C
:1000A000013401347F340434083410347F3438345C
:1000B0005434543454341834483454345434543448
:1000C000203404343F344434403420340034063483
:1000D0000934093406340034003400340034003468
:1000E0000834083408340834083400346034603488
:1000F000003400343E344134413441343E34003421
:1001000042347F3440340034423461345134493411
:1001100046342134413445344B34313418341434AA
:1001200012347F341034273445344534453439345F
:100130003C344A344934493430340134713409345C
:1001400005340334363449344934493436340634BA
:100150004934493429341E343E3441344134413425
:1001600022347F3409340934013401347F340434B7
:10017000083410347F3438345434543454341834FC
:100180004834543454345434203404343F344434E4
:0E019000403420340034063409340934063477
:1005DA00503401347834831203130511F42AF52AAE
:1005EA000000831203138511080083120313851573
:1005FA00FE2AFF2A000083120313051508000000D3
:10060A00831203138515092B0A2B00008312031387
:10061A00851100000800F300F022831203133C083E
:10062A00AD230030AD237308AD23FA220800F3008E
:10063A00F201731C242B7008F1007108F2070310F1
:10064A00F00D0310F30C7308031D1E2B720808002B
:10065A00831603138612831203138612C730F0001F
:10066A00F00B352B382B8316031386162130F00036
:10067A00F00B3D2BC730F000F00B412B442B080048
:10068A00AE3010238D301023143010232030102365
:10069A0000301023A1301023C8301023DA30102381
:1006AA001230102381301023FF301023AF30102373
:1006BA000800F401F501701C682B7208F40703188E
:1006CA00F50A7308F50701300310F20DF30DFF3E2A
:1006DA00031D692B01300310F10CF00CFF3E031DC2
:1006EA00702B70087104031D602B7508F1007408E3
:1006FA00F0000800F60108307602031808002130DD
:10070A001023003010237F30102322301023760864
:10071A0010237608013E1023F022831203133C08AB
:10072A00AD234030AD23F501803075020318A72BA5
:10073A000030AD230130F4007408F50780307502EB
:10074A00031C9D2BFA220130F4007408F607802B53
:10075A00F100F201083072020318D12B7108F0007F
:10076A007203FF3A073E013EBC2B0310F00CFF3E1A
:10077A00031DBA2B701CC52B831203130515C82B36
:10078A0083120313051104230130F0007008F207E5
:10079A0008307202031CB32B8316031305150423B6
:1007AA00D62BD72B00008316031305110800F2017C
:1007BA00F3010830730203180D2C831603138612F3
:1007CA00831203138612E92B831603138616ED2B65
:1007DA00EE2BEF2B83120313861E002C0130F00040
:1007EA00730AF92B0310F00DFF3E031DF72B700857
:1007FA00F1007108F2071A30F000F00B022C000029
:10080A000130F0007008F30708307302031CE22B72
:10081A0083160313861672080800F100F2010830E5
:10082A00720203184C2C0130F000720A1E2C0310BD
:10083A00F00DFF3E031D1C2C700871050319352CA1
:10084A008316031386128312031386122C2C831623
:10085A00031386161A30F000F00B312C0000442CDA
:10086A008316031386128312031386121A30F000BA
:10087A00F00B3D2C0000831603138616442C01301E
:10088A00F0007008F20708307202031C182C831655
:10089A00031386160800FD0183120313A71F5C2C9D
:1008AA00A609A709A60A0319A70AFD01FD0AA51F99
:1008BA00632CA409A509A40A0319A50A2408250476
:1008CA000319902CFC01FC0AA51B772C013003109C
:1008DA00A40DA50DFF3E031D6C2C0130FB007B0807
:1008EA00FC07692C25082702031D7D2C24082602F3
:1008FA00031C852C2408A6022508031CA703A702AB
:10090A0001300310A50CA40CFF3E031D862C0130F8
:10091A00FC02031D772C7D080319982CA609A70948
:10092A00A60A0319A70A2708A5002608A400080092
:10093A0083120313A101F71FA92CF609F709F60A76
:10094A000319F70AA101A10AF91FB42CF809F90938
:10095A00F80A0319F90A0130FA007A08A106A20175
:10096A00A301760877040319EB2CA001A00AF71B50
:10097A00CA2C01300310F60DF70DFF3E031DBF2CE4
:10098A000130FA007A08A007BC2C01300310A20D2E
:10099A00A30DFF3E031DCB2C77087902031DD72C2C
:1009AA0076087802031CE02C7608F8027708031C04
:1009BA00F903F902221401300310F70CF60CFF3E7A
:1009CA00031DE12C0130A002031DCA2C21080319C2
:1009DA00F32CA209A309A20A0319A30A2308F70000
:1009EA002208F6000800F8002030102301301023F6
:1009FA00213010230D30F6007608F00075081C230C
:100A0A0010230D30F6007608F00075081C23093E05
:100A1A00102322301023740810237408013E102377
:100A2A00F022831203133C08AD234030AD23FB01AF
:100A3A0005307B0203186A2D0530F6007608F000AF
:100A4A0078081C237B07013E84000120F700770801
:100A5A00FC00FA01F9017C1F362DC030F600760839
:100A6A00FA07FC1E3C2D3030F6007608FA077C1E89
:100A7A00422D0C30F6007608FA07FC1D482D03308B
:100A8A00F6007608FA077C1D4E2DC030F60076086F
:100A9A00F907FC1C542D3030F6007608F9077C1C47
:100AAA005A2D0C30F6007608F9077908AD237A0832
:100ABA00AD237908AD237A08AD230130F600760814
:100ACA00FB0705307B02031C212DFA22203010235C
:100ADA000030102308001030F6000030F7000F3005
:100AEA00831203133A05F00000303B05F1000A3087
:100AFA00F2000030F3005E237108F9007008F80074
:100B0A009D24760883120313A8002808AC0010302D
:100B1A00F6000030F7003B08F9003A08F8009D2477
:100B2A00770883120313AE007608AD000A30A400DA
:100B3A000030A5000A30F6000030F7002E08F90050
:100B4A002D08F8009D24770883120313A70076085E
:100B5A00A6005024831203132408A8002808AA0018
:100B6A000A30A4000030A5002E08A7002D08A60010
:100B7A005024831203132408A8002808AB00063067
:100B8A00A8002808F4000530A9002908F5002A0859
:100B9A00033EF824063083120313A8002808F40041
:100BAA000630A9002908F5002B08033EF824063070
:100BBA0083120313A8002808F4000830A9002908A2
:100BCA00F5002C08033EF82408002D23CC3012240B
:100BDA00BE301224DC2383120313A800A9012808BB
:100BEA00AB002908AC00DC2383120313A800A90177
:100BFA002808AD002908AE002D232D23CC3012245D
:100C0A0044301224831203132E08A9002D08A800C9
:100C1A002808A900A8012B082807BD002C080318DA
:100C2A002C0A2907BE00BE1F282EAF01AF0A3D09B4
:100C3A00A8003E09A900A80A0319A90A2808B500AC
:100C4A002908B6002D2EAF013E08B6003D08B500B2
:100C5A000F303505F00000303605F1000A30F20099
:100C6A000030F3005E23700883120313A800710892
:100C7A00A90004300310A90CA80CFF3E031D3F2E47
:100C8A002808AA002A08B200350E0F39B300360E1A
:100C9A00F039B304360E0F39B4000A30A40000301C
:100CAA00A5000A30F6000030F7003408F9003308CE
:100CBA00F8009D24770883120313A7007608A6007C
:100CCA005024831203132408A8002808B0000A300D
:100CDA00A4000030A5003408A7003308A600502459
:100CEA00831203132408A8002808B1002F08031947
:100CFA00832EF401F501F50A0130872EF401F5017E
:100D0A00F50A0030F824F401023083120313A80014
:100D1A002808F5003008033EF824F4010330831252
:100D2A000313A8002808F5003108033EF824F4014B
:100D3A00053083120313A8002808F5003208033E81
:100D4A00F82408000730831203139F0031308316FA
:100D5A00031385003F308600811383120313851025
:100D6A0085150515063083120313B9001330B80030
:100D7A00AD30B700B70BBF2EB80BBF2EB90BBF2EC5
:100D8A00000045237F23F401043083120313B700C4
:100D9A003708F5000230F824F401073083120313F0
:100DAA00B7003708F5001330F824F401083083122D
:100DBA000313B7003708F5000D30F8240630831204
:100DCA000313B7003708F400F501F50A1130F824C7
:100DDA00063083120313B7003708F4000230B80054
:100DEA003808F5001030F824063083120313B700D0
:100DFA003708F4000330B8003808F5001230F82438
:100E0A00063083120313B7003708F4000730B8001E
:100E1A003808F5000230F824702583120313861867
:100E2A005A2F083083120313BA070318BB0A00307B
:100E3A00BB073B08803AFF0083307F02031D272F40
:100E4A0021303A02031C2F2F203083120313BA00D9
:100E5A000330BB007025033083120313B9008A30B4
:100E6A00B8005530B700B70B382FB80B382FB90B6D
:100E7A00382F0000122FF830BA070318BB0AFF30C8
:100E8A00BB07BB1F4A2FBA01BB017025033083126F
:100E9A000313B9008A30B8005530B700B70B532F87
:100EAA00B80B532FB90B532F000083120313061DDF
:100EBA00402FEA25831203133E08803AFF00803050
:100ECA007F02031D6A2F01303D02031CBF2F8312CC
:100EDA0003133A08FC3EB7003B080318013EFF3EE5
:100EEA00B8003E08803AB9003808803A3902031D32
:100EFA00802F37083D020318A92F033083120313EA
:100F0A00B7003708F4000430B8003808F500033099
:100F1A00F824033083120313B7003708F4000530AE
:100F2A00B8003808F5000F30F82403308312031391
:100F3A00B7003708F4000630B8003808F50000306A
:100F4A00F824831203138514831203133A08043E08
:100F5A00B7003B080318013E003EB8003808803A43
:100F6A00B9003E08803A3902031DBD2F3D083702F9
:100F7A000318E62F033083120313B7003708F4006F
:100F8A000430B8003808F5000330F824033083121F
:100F9A000313B7003708F4000530B8003808F50025
:100FAA000E30F824033083120313B7003708F40015
:100FBA000630B8003808F5000E30F82483120313FF
:100FCA008510063083120313B9001330B800AD3010
:100FDA00B700B70BEE2FB80BEE2FB90BEE2F0000B0
:100FEA00122FED22BA00EE22BB00EF22BC00BD0197
:060FFA00BE018301A72ED9
:02400E0018FF99
:00000001FF
